:020000040800F2
:10000000000002209DD20008EDD20008EDD20008C9
:10001000EDD20008EDD20008EDD20008000000008B
:10002000000000000000000000000000EDD2000809
:10003000EDD2000800000000EDD20008B7B60008BD
:10004000EDD20008EDD20008EDD20008EDD2000894
:10005000EDD20008EDD20008ADB70008B3B7000834
:10006000B9B70008BFB70008C5B70008EDD200084F
:10007000EDD20008EDD20008EDD20008EDD2000864
:10008000EDD20008EDD20008EDD20008EDD2000854
:10009000EDD20008EDD20008EDD20008CBB7000881
:1000A000E5B00008FDAF0008F9B0000821B0000875
:1000B00035B0000849B000085DB00008654D000883
:1000C000714D00087D4D0008894D0008EDD20008F3
:1000D000EDD200087DC5000895C50008B1C500082F
:1000E000F3B70008EDD20008EDD200080DB100080A
:1000F000ADB0000821B10008D1B00008EDD2000871
:10010000EDD20008EDD2000871B00008EDD2000871
:10011000CDC50008E5C5000885B0000899B0000805
:10012000EDD20008EDD20008EDD20008EDD20008B3
:10013000EDD200080000000000000000EDD2000831
:10014000EDD20008EDD20008EDD20008EDD2000893
:10015000EDD20008EDD20008EDD20008FDC5000880
:10016000954D0008A14D0008EDD20008EDD2000821
:10017000EDD20008EDD20008EDD20008000000002A
:1001800000000000EDD200080000000000000000A8
:10019000EDD200080000000000000000EDD20008D1
:1001A000000000000000000000000000EDD2000888
:1001B000EDD20008EDD20008EDD20008EDD2000823
:0401C000EDD2000874
:1001D000034613F8012B002AFBD1181A0138704787
:1001E00001F0FF01102A2BDB10F0070F08D010F8E8
:1001F000013B013A8B422DD010F0070F42B3F6D1EC
:10020000F0B441EA012141EA014122F007047FF004
:1002100000070023F0E80256083C85EA010586EA5B
:10022000010685FA47F5A3FA87F586FA47F6A5FA97
:1002300087F68EB9EED1F0BC01F0FF0102F00702A3
:1002400032B110F8013B013A83EA010313B1F8D14E
:100250000020704701387047002D06BF354603382F
:10026000073815F0010F07D1013015F4807F02BF68
:10027000013015F4C03F0130F0BC0138704700BFB9
:1002800081F0004102E000BF83F0004330B54FEA47
:1002900041044FEA430594EA050F08BF90EA020FB4
:1002A0001FBF54EA000C55EA020C7FEA645C7FEA47
:1002B000655C00F0E2804FEA5454D4EB5555B8BF6A
:1002C0006D420CDD2C4480EA020281EA030382EADB
:1002D000000083EA010180EA020281EA0303362D6D
:1002E00088BF30BD11F0004F4FEA01314FF4801C40
:1002F0004CEA113102D0404261EB410113F0004F52
:100300004FEA03334CEA133302D0524263EB430308
:1003100094EA050F00F0A780A4F10104D5F1200EA6
:100320000DDB02FA0EFC22FA05F2801841F1000101
:1003300003FA0EF2801843FA05F359410EE0A5F1D5
:1003400020050EF1200E012A03FA0EFC28BF4CF006
:10035000020C43FA05F3C01851EBE37101F00045BC
:1003600007D54FF0000EDCF1000C7EEB00006EEBC9
:100370000101B1F5801F1BD3B1F5001F0CD3490853
:100380005FEA30004FEA3C0C04F101044FEA4452AA
:1003900012F5800F80F09A80BCF1004F08BF5FEA31
:1003A000500C50F1000041EB045141EA050130BD11
:1003B0005FEA4C0C404141EB0101013C28BFB1F523
:1003C000801FE9D291F0000F04BF01460020B1FA6E
:1003D00081F308BF2033A3F10B03B3F120020CDA41
:1003E0000C3208DD02F1140CC2F10C0201FA0CF01F
:1003F00021FA02F10CE002F11402D8BFC2F1200C84
:1004000001FA02F120FA0CFCDCBF41EA0C01904039
:10041000E41AA2BF01EB0451294330BD6FEA040482
:100420001F3C1CDA0C340EDC04F11404C4F120026D
:1004300020FA04F001FA02F340EA030021FA04F37F
:1004400045EA030130BDC4F10C04C4F1200220FAD6
:1004500002F001FA04F340EA0300294630BD21FA14
:1004600004F0294630BD94F0000F83F4801306BFDA
:1004700081F480110134013D4EE77FEA645C18BFCE
:100480007FEA655C29D094EA050F08BF90EA020F65
:1004900005D054EA000C04BF1946104630BD91EA5D
:1004A000030F1EBF0021002030BD5FEA545C05D160
:1004B0004000494128BF41F0004130BD14F580049F
:1004C0003CBF01F5801130BD01F0004545F0FE4113
:1004D00041F470014FF0000030BD7FEA645C1ABF48
:1004E000194610467FEA655C1CBF0B46024650EA7F
:1004F000013406BF52EA033591EA030F41F40021AB
:1005000030BD00BF90F0000F04BF0021704730B530
:100510004FF4806404F132044FF000054FF0000105
:1005200050E700BF90F0000F04BF0021704730B5C6
:100530004FF4806404F1320410F0004548BF40429B
:100540004FF000013EE700BF42004FEAE2014FEAF0
:1005500031014FEA02701FBF12F07F4393F07F4FCB
:1005600081F06051704732F07F4208BF704793F0CE
:100570007F4F04BF41F40021704730B54FF46074E1
:1005800001F0004521F000411CE700BF50EA0102E4
:1005900008BF704730B54FF000050AE050EA01028D
:1005A00008BF704730B511F0004502D5404261EBFD
:1005B00041014FF4806404F132045FEA915C3FF43E
:1005C000D8AE4FF003025FEADC0C18BF03325FEADB
:1005D000DC0C18BF033202EBDC02C2F1200300FA8C
:1005E00003FC20FA02F001FA03FE40EA0E0021FAB1
:1005F00002F11444BDE600BF70B54FF0FF0C4CF49F
:10060000E06C1CEA11541DBF1CEA135594EA0C0F50
:1006100095EA0C0F00F0DEF82C4481EA030621EA8B
:100620004C5123EA4C5350EA013518BF52EA0335C6
:1006300041F4801143F4801338D0A0FB02CE4FF078
:100640000005E1FB02E506F00042E0FB03E54FF0A8
:100650000006E1FB03569CF0000F18BF4EF0010EA0
:10066000A4F1FF04B6F5007F64F5407404D25FEA9C
:100670004E0E6D4146EB060642EAC62141EA55514F
:100680004FEAC52040EA5E504FEACE2EB4F1FD0C91
:1006900088BFBCF5E06F1ED8BEF1004F08BF5FEA0F
:1006A000500E50F1000041EB045170BD06F00046C1
:1006B00046EA010140EA020081EA0301B4EB5C046E
:1006C000C2BFD4EB0C0541EA045170BD41F4801166
:1006D0004FF0000E013C00F3AB8014F1360FDEBF8B
:1006E000002001F0004170BDC4F10004203C35DA67
:1006F0000C341BDC04F11404C4F1200500FA05F3EA
:1007000020FA04F001FA05F240EA020001F000428A
:1007100021F0004110EBD37021FA04F642EB060100
:100720005EEA430E08BF20EAD37070BDC4F10C042A
:10073000C4F1200500FA04F320FA05F001FA04F2EE
:1007400040EA020001F0004110EBD37041F10001DA
:100750005EEA430E08BF20EAD37070BDC4F12005E5
:1007600000FA05F24EEA020E20FA04F301FA05F24D
:1007700043EA020321FA04F001F0004121FA04F2F5
:1007800020EA020000EBD3705EEA430E08BF20EAC5
:10079000D37070BD94F0000F0FD101F000464000FF
:1007A00041EB010111F4801F08BF013CF7D041EA81
:1007B000060195F0000F18BF704703F00046520085
:1007C00043EB030313F4801F08BF013DF7D043EA56
:1007D0000603704794EA0C0F0CEA135518BF95EA0C
:1007E0000C0F0CD050EA410618BF52EA4306D1D193
:1007F00081EA030101F000414FF0000070BD50EAB2
:10080000410606BF1046194652EA430619D094EA3B
:100810000C0F02D150EA013613D195EA0C0F05D125
:1008200052EA03361CBF104619460AD181EA030179
:1008300001F0004141F0FE4141F470014FF0000031
:1008400070BD41F0FE4141F4780170BD70B54FF0CC
:10085000FF0C4CF4E06C1CEA11541DBF1CEA13554C
:1008600094EA0C0F95EA0C0F00F0A7F8A4EB05042E
:1008700081EA030E52EA03354FEA013100F0888025
:100880004FEA03334FF0805545EA131343EA1263EE
:100890004FEA022245EA111545EA10654FEA0026A3
:1008A0000EF000419D4208BF964244F1FD0404F55C
:1008B000407402D25B084FEA3202B61A65EB0305B8
:1008C0005B084FEA32024FF480104FF4002CB6EB75
:1008D000020E75EB030E22BFB61A754640EA0C00F5
:1008E0005B084FEA3202B6EB020E75EB030E22BF35
:1008F000B61A754640EA5C005B084FEA3202B6EB76
:10090000020E75EB030E22BFB61A754640EA9C0034
:100910005B084FEA3202B6EB020E75EB030E22BF04
:10092000B61A754640EADC0055EA060E18D04FEAC2
:10093000051545EA16754FEA06164FEAC30343EA62
:1009400052734FEAC2025FEA1C1CC0D111F4801F2F
:100950000BD141EA00014FF000004FF0004CB6E728
:1009600011F4801F04BF01430020B4F1FD0C88BFC7
:10097000BCF5E06F3FF6AFAEB5EB030C04BFB6EBD2
:10098000020C5FEA500C50F1000041EB045170BDC5
:100990000EF0004E4EEA113114EB5C04C2BFD4EBF2
:1009A0000C0541EA045170BD41F480114FF0000E76
:1009B000013C90E645EA060E8DE60CEA135594EAF2
:1009C0000C0F08BF95EA0C0F3FF43BAF94EA0C0FF5
:1009D0000AD150EA01347FF434AF95EA0C0F7FF46A
:1009E00025AF104619462CE795EA0C0F06D152EABE
:1009F00003353FF4FDAE1046194622E750EA4106A2
:100A000018BF52EA43067FF4C5AE50EA41047FF4B2
:100A10000DAF52EA43057FF4EBAE12E74FF0FF3C17
:100A200006E000BF4FF0010C02E000BF4FF0010CE8
:100A30004DF804CD4FEA410C7FEA6C5C4FEA430C61
:100A400018BF7FEA6C5C1BD001B050EA410C0CBFB0
:100A500052EA430C91EA030F02BF90EA020F002012
:100A6000704710F1000F91EA030F58BF994208BF79
:100A700090422CBFD8176FEAE37040F00100704736
:100A80004FEA410C7FEA6C5C02D150EA013C07D18D
:100A90004FEA430C7FEA6C5CD6D152EA033CD3D0D8
:100AA0005DF8040B704700BF8446104662468C46D2
:100AB0001946634600E000BF01B5FFF7B7FF002805
:100AC00048BF10F1000F01BD4DF808EDFFF7F4FF2E
:100AD0000CBF012000205DF808FB00BF4DF808EDB9
:100AE000FFF7EAFF34BF012000205DF808FB00BFDC
:100AF0004DF808EDFFF7E0FF94BF012000205DF8FE
:100B000008FB00BF4DF808EDFFF7CEFF94BF0120B2
:100B100000205DF808FB00BF4DF808EDFFF7C4FFAB
:100B200034BF012000205DF808FB00BF4FEA410CF4
:100B30007FEA6C5C02D150EA013C0AD14FEA430CD7
:100B40007FEA6C5C02D152EA033C02D14FF0000014
:100B500070474FF0010070474FEA410212F5001252
:100B600015D211D56FF47873B3EB625212D94FEAF4
:100B7000C12343F0004343EA505311F0004F23FADE
:100B800002F018BF404270474FF00000704750EA33
:100B9000013005D111F0004008BF6FF000407047F0
:100BA0004FF00000704700BF4A0011D212F500124A
:100BB00011D20DD56FF47873B3EB62520ED44FEAB5
:100BC000C12343F0004343EA505323FA02F0704735
:100BD0004FF00000704750EA013002D14FF0FF3073
:100BE00070474FF0000070474FEA4102B2F1E04316
:100BF00024BFB3F5001CDCF1FE5C0DD901F0004C04
:100C00004FEAC0024CEA5070B2F1004F40EB830053
:100C100008BF20F00100704711F0804F21D113F17F
:100C20003872BCBF01F00040704741F480114FEAB8
:100C30005252C2F11802C2F1200C10FA0CF320FA41
:100C400002F018BF40F001004FEAC1234FEAD3235E
:100C500003FA0CFC40EA0C0023FA02F34FEA4303C8
:100C6000CCE77FEA625307D150EA01331EBF4FF051
:100C7000FE4040F44000704701F0004040F0FE406C
:100C800040F40000704700BF53B94AB9002908BFBB
:100C900000281CBF4FF0FF314FF0FF3000F00CB8C0
:100CA000ADF1080C6DE904CE0EF00EFADDF804E0AB
:100CB000DDE9022304B07047704700BF10B5054C52
:100CC000237833B9044B13B10448AFF300800123F8
:100CD000237010BD8801002000000000C8F3000848
:100CE00008B5034B1BB103490348AFF3008008BDAF
:100CF000000000008C010020C8F3000870B500F16E
:100D000018060D463146044606F042FC2946304698
:100D1000012206F031FC2046BDE8704006F072BCAE
:100D20002DE9F0472DED048BDFF8A8815E4D9FED96
:100D30005F9ADFED5F8A5AA7D7E9006784B0C246A1
:100D40004FF000090024B6EE008A07EE909AF8EE04
:100D5000E77A09F1010917EE900AFFF7F5FB324631
:100D60003B46FFF749FC2B462246FFF76FFDFFF796
:100D70003BFF00EE100A0DF0EBF9F0EE687AE0EEC2
:100D8000097AB9F1190F77EE887AFCEEE77A17EE57
:100D9000903A2AF8023BD8D10521C2200CF0EEFA95
:100DA0000521C5200CF0EAFA424B00220192196B92
:100DB00041F400111963196B01F4001101910199BB
:100DC0000292196C41F000511964196C01F0005144
:100DD0000291029903921A6C374942F010021A6488
:100DE0001B6C364A03F010030393039B136823F034
:100DF000010313600B6823F480530B60304BD3F86E
:100E0000882022F00102C3F88820D3F8882012F04D
:100E10000102FAD14FF4006088604FF47461D96028
:100E20002849C3F890101921C3F89480C3F88C1096
:100E3000C3F89C20244AC3F8882008F003FF1D4B08
:100E4000224A9B6813F4E05F1C4B4FF0000118BF6F
:100E50004000B0FBF2F2541E9962B0FBF2F0DC628B
:100E60001B4A596220245C6001245C611060124AB4
:100E700011604FF40061916041F205011160104969
:100E8000D1F888202243C1F888201A6822431A60CA
:100E900004B0BDEC048BBDE8F08700BFAFF3008069
:100EA000182D4454FB211940000039407BA49E4476
:100EB000000000450038024000740040001000406F
:100EC0000060024008740040402D020E40420F00B6
:100ED000A0030020A40300202DE9F84F002540F6D0
:100EE000FF79DFF8F4802E46AA462C46CB46112720
:100EF000C5200CF02DFAD8F82C3082B29345C3F3FC
:100F00000B0328BF934616FA80F69442B5FBF7F020
:100F100000EB001038BF1446281A994528BF99469F
:100F200001309A4505F1070538BF9A460CF07EFB63
:100F3000B5F5E06FDCD1A4EB0B0307EE903A9FED23
:100F40001D7A9FED1D6A1D4BF8EEE77A67EE877AF2
:100F5000C7EE866A07EE906AFBEECC7AC3ED006AB4
:100F600067EE877A164B87EE867AF6EE007A83ED87
:100F7000007A144BF4EEE76AA3F80090124BF1EEFE
:100F800010FAA3F800A013DDDFED107AB4EEE77AD3
:100F9000F1EE10FA0CDDDFED0E7AB4EEE77AF1EE49
:100FA00010FA4CBF012300230A4A1370BDE8F88FE2
:100FB0000023F9E73333534000F07F4574000020ED
:100FC000700000206C000020940300203333333F76
:100FD00066662640960300200074004070B5064601
:100FE0002025002430460CF0B3F9013D0444F9D12A
:100FF00007EE904A9FED057A9FED050AFBEEED7A2C
:1010000067EE877A87EE800A70BD00BF33335340A6
:1010100000F07F4508B5C120FFF7E0FFDFED087A5B
:10102000B4EEE70AF1EE10FA09DDDFED067AB4EE70
:10103000E70AF1EE10FA44BF034B83ED000A08BD46
:101040003333B33E6666263F4800002008B5C32010
:101050002DED028BFFF7C2FFDFED517A514B9FED73
:10106000528A83ED000AB0EEC07AB4EE677AF1EEF0
:1010700010FA00F29280F0EE047AB4EEE70AF1EE94
:1010800010FA00F18A80F1EE027AB4EEE70AF1EE8E
:1010900010FA00F382809FED457ADFED457A20EE6D
:1010A000077A60EE277AE0EE077A9FED427A77EED4
:1010B000C77AF4EEC87AF1EE10FA48BFF0EE487A3B
:1010C0003D4BC120C3ED007AFFF788FF3B4BDFEDBE
:1010D0003C6A83ED000A3B4BD3ED007A3A4B30EE8D
:1010E000670ADFED3A7A20EE270ADFED397AB5EEAE
:1010F000C00AF1EE10FA58BFB0EE408A68EE277AC7
:10110000C02087EEA67ADFED337A83ED007AB2EE67
:10111000047AE8EE077A304BC3ED007AFFF75EFF02
:101120002E4BD3ED007A2E4BF4EE677AB3EE097AAC
:10113000F1EE10FA68BFF0EE477A77EEC77A9FEDCE
:10114000297AF7EE006AE7EE876ADFED277A80EE0C
:10115000267ADFED266A67EE277A67EE266A67EE63
:10116000677A66EE876AE7EE267ADFED216AE7EEB8
:10117000267AB6EE007A67EE877ADFED1E6AC3ED57
:10118000007A77EEA77A1C4B87EEA67A83ED007A79
:10119000FFF7A2FEBDEC028B08BDDFED187A8FE7EA
:1011A000FFFF7F7F3C00002000000000CD0C8CC4BE
:1011B0006672B345330788454000002028000020B0
:1011C0009A3A1946480000202C000020CDCCCC3E95
:1011D000002474492DB2813F3000002044000020DB
:1011E000380000200AD7A33C29DC7F43856B0543E8
:1011F000F658564400007A44340000200000C07FB6
:1012000008B5002107200CF023F902200CF00EFA9B
:10121000012107200CF01CF90A200CF007FA00212C
:1012200007200CF015F947F23052012108200CF08C
:1012300083F908B307EE900A9FED117AF8EE677A0A
:1012400067EE877AB6EE007A67EE877AB0EE007ABC
:10125000F4EEC77AF1EE10FA0ED49FED0A7AF4EEAE
:10126000477A9FED097AF1EE10FAC8BFF0EE477A9F
:10127000064BC3ED007A08BDDFED037AF8E700BF47
:10128000287E0C3D0000C8430000C07F24000020E1
:1012900010B54D4B2DED048B1B7886B05BB14B48E0
:1012A00005F0CEFA4A4B494883ED000A05F0DCFA16
:1012B000484B83ED000A484B1B782BB1474805F09B
:1012C000D3FA474B83ED000A464B1B7873B1464C6B
:1012D000204601F0B3FE48B1444B0022D4E902019C
:1012E000FFF7B4FAFFF780FC414B1860414B1B78C5
:1012F0006BB3414806F02FFA48B303A93E48DFED2F
:101300003F9A06F094F99DED049A9DED058AB0EEA2
:10131000490AF0EE480A0CF0BFFE394BDDED038AB6
:1013200020EE290AF1EE688A83ED000A28EE080A09
:10133000A9EE090A0CF0B2FEF0EE400AB0EE680A1F
:101340000CF0AAFE2F4B20EE290A83ED000A2E4B4B
:101350001B78ABB32D4803AB02AA01A906F0CFFC62
:1013600070B3DDED017ADFED2A5A9FED2A6AB8EEFF
:10137000677ADDED027AB8EE670A37EE657A30EE0D
:10138000650ADDED037A20EE060AF2EE006A27EE2A
:10139000067A20EE260AF8EE677A27EE267A77EEAE
:1013A000E57A20EE000A67EE867AA7EE070A67EE76
:1013B000A67AA7EEA70A0CF071FE174B83ED000A80
:1013C00006B0BDEC048B10BDCB010020040300204F
:1013D000200000201C000020CA010020F002002094
:1013E00018000020C9010020F00100200000594031
:1013F00014000020C8010020D0010020E12E654229
:10140000100000200C000020C70100204C0000202C
:1014100000000048000000370800002008B50A4816
:1014200005F026FD0848002105F078FD064805F086
:1014300097FC064B00280CBF002201221A7002BF45
:10144000034B044A1A6008BD18030020C60100209F
:10145000440000200000C07FF7B5264E264D3378AB
:10146000044663B9254A2B701368C31AB3F5FA6FA3
:101470000FD3106003B0BDE8F040FFF7CFBF2B786B
:101480001F4F43B91F49684605F077FD3C600123B3
:101490002B7003B0F0BD3B68C31AB3F5487FF8D397
:1014A0001848002105F00CFEDFED177A174BB4EE5B
:1014B000670AF1EE10FA0DD0DFED157AB4EEE70A07
:1014C000F1EE10FA06D4DFED137AB4EEE70AF1EE8E
:1014D00010FA0BDD104A1A60104A0023337013888B
:1014E00001331380054B1C600023D1E783ED000A14
:1014F0000B4BF8E7C6010020B0010020B40100202A
:10150000B8010020180300200000FEC244000020A3
:1015100000005CC20000FA420000C07FC40100204D
:10152000C0010020B4EE400AF1EE10FA10B50446F6
:1015300004D704490BF0D1FC204610BD0BF009FD87
:10154000FAE700BF40F4000838B5B4EE400AF1EE07
:1015500010FA2DED048BF0EE608AB0EE418AB0EE09
:10156000619A38D7FEF7CEFF1FA3D3E90023FFF718
:1015700043F8044619EE100A0D46FEF7E5FF024651
:101580000B4620462946FFF761F9FFF72DFB00EED9
:10159000100A0CF0DDFDDFED127A69EE277AE8EE35
:1015A000008A17EE900AFEF7CFFF02460B46204650
:1015B0002946FFF74BF9FFF717FB00EE100A0CF076
:1015C000C7FD9FED087A28EE078AF0EE407AB0EE6C
:1015D000680AA8EE270ABDEC048B38BDAFF3008083
:1015E0001F856B3EEC51383E182D4454FB211940A9
:1015F0001FB53023CDE900330292044B0A46014661
:10160000034804F030FA05B05DF804FB34FB000831
:101610004C030020000000002DE9F04F2DED048B5D
:10162000594E5948594F83B0002103F0CBFF4FF07A
:10163000FF353046022100247561F47604F045FC44
:10164000534B5449336130460BF0E0FA52496FF086
:10165000F823C6E90413304650490BF0D7FA304658
:10166000012104F032FC4FF048134D493046C6E9E1
:1016700004350BF0CBFA4B4B33614B494B4B736149
:1016800030460BF0C3FA07231F20CDE900306F224C
:1016900030468C230A2103F0A3FF0FF2E409D9E9B5
:1016A00000898725002630230022CDE90032364804
:1016B0009FED3F8A1C220A2104F0C5FD4FF6FF7200
:1016C0001C210A20FFF794FF2846FEF72BFF424615
:1016D0004B46FEF791FF32463B46FFF7B7F8FFF760
:1016E00083FA08EE900AB0EE680A0CF0F9FCB3EE4B
:1016F000059AA0EE098A4FF4FC6A4FF0030BB0EE96
:10170000680A0CF025FDDFED2B7A1F48CDF804A008
:10171000E0EE097A34222221BDEEC88AFDEEE77A96
:101720000F3517EE903A1BB2009318EE103A1BB229
:1017300003F097FF40F2FF73CDE900B3124823B2E4
:1017400071220C2104F07FFD37200BF061FF0B3478
:10175000B5F5A57FA4B2A6D1CDE900BA0A48882381
:1017600071220C2104F06FFD4FF4AF7003B0BDEC9B
:10177000048BBDE8F04F0BF04BBF00BFAFF3008010
:10178000182D4454FB2109404C0300200080664082
:10179000480019005DF400084E002F0076F40008A0
:1017A00062F40008480054006AF40008E007E0070B
:1017B000000008420000504273B504460D461D4823
:1017C0001C4E002103F0FEFE1A48012104F07DFBAF
:1017D0004FF00413336118496FF0F82330467361FA
:1017E0000BF0FBF9154A4FF01F13C6E90423691CDF
:1017F0000A2230460BF04CFA2F2130460BF0F1F95B
:101800000A22062130460BF052FA1F23009330467D
:10181000A0230E22002104F078FD09496FF01F1368
:10182000C6E904133046214602B0BDE870400BF013
:10183000D4B900BF4C03002072F400088B000400F0
:10184000040013002DE9F0410F4C884605460121A4
:1018500020461E46174604F038FB4FF0FF33636105
:101860002DB2042341462046238265820BF0B5F950
:101870004623E682A6822382658239462046BDE859
:10188000F0410BF0A5B900BF4C03002073B50D4C1F
:101890001F230D46064600937422A02320460021F4
:1018A00004F033FD2046012104F00FFB064BE582D6
:1018B00031462046A582236102B0BDE870400BF09E
:1018C0008CB900BF4C0300200400770013B51F241F
:1018D000164800940C234922302103F02BFF1348B3
:1018E000009418234922302103F024FF0F4800946C
:1018F00024234922302103F01DFF49231A460B48B7
:1019000000940C2104F001FD08480094492325228D
:10191000302104F03AFD4FF6FF7300930348022391
:101920004922302104F072F802B010BD4C030020AF
:10193000F0B52DED028B324F324E83B0044651B9D3
:101940000191B6F900300093B7F900302E484922D2
:10195000302103F086FEFFF7B9FF4FF4B472122373
:10196000B4FBF3F3B3FBF2F002FB1030FEF7CAFD59
:1019700021A3D3E90023FEF73FFE0022234BDFED36
:10198000248AFEF763FFFFF72FF908EE100AB0EE86
:10199000480A0CF0A5FBDFED1F7AE0EE287AB0EEE6
:1019A000480AFDEEE77A17EE903A1DB20CF0D0FB34
:1019B000DFED197A1448E0EE287A49223021FDEE55
:1019C000E77A17EE903A1CB24FF4FC63CDE900437E
:1019D0002B4603F046FE40F2FF7300930A480123B2
:1019E0002246294604F012F83D80348003B0BDEC55
:1019F000028BF0BDAFF30080182D4454FB21094049
:101A000006000020040000204C03002000806640F7
:101A100000000C42000040420000924238B50446EB
:101A2000FFF754FF20462F4C2F4D0121FFF780FF79
:101A30000121204604F049FA2C4A2D4B2D4920461D
:101A4000C4E904230BF0C9F82B4B2C492361204631
:101A50000BF0C3F82A4B2B491B68002B0CBF4FF42B
:101A6000FC634FF47843E382A382274B2361274B27
:101A7000204618BF19460BF0B0F82B78002B0CBF8E
:101A80004FF478434FF4FC63E382A382204B23613D
:101A9000204B022193ED000A20460BF0C7F91E49A6
:101AA00020460BF09AF82A781C49534283F4784375
:101AB0009BB2E382A3821A4B23611A4B2046002A71
:101AC00008BF19460BF089F82B7833B116484FF44C
:101AD000FC61BDE83840FFF7D9BE14484FF47841A7
:101AE000F7E700BF4C030020960300205E002700AC
:101AF000E007E007C2F400085E003600CBF40008FF
:101B00009C03002084F400085E0045007AF400087D
:101B10005E00540074000020D3F400088BF4000829
:101B20005E00630094F400089FF40008B3F400081A
:101B30002DE9F04F2DED088B97B005AC9FED949AF1
:101B4000DFED94AA9FED94BAA246002507EE905AC5
:101B5000F8EEE77AB0EE4B7AA7EEAA7A8F4F9FEDB8
:101B60008C8ADFED8FBA17EE100AFEF7EDFC86A324
:101B7000D3E90023FEF740FD8A4B8046186889466A
:101B8000FEF7C0FCCDE90201BB460026F0EE489A04
:101B90003BF8023B304608EE903AFEF7C3FC424663
:101BA0004B46FEF729FDDDE90223FEF74FFEFFF766
:101BB0001BF80AEE100AF8EE688AB0EE4A0A0CF03A
:101BC0008FFA78EEEB8A0136E0EE289AB0EE4A0AF8
:101BD0000CF0BEFA192EA0EE688AD9D128EE080AB8
:101BE0000135A9EEA90A0CF059FAB4EEC90AF1EED2
:101BF00010FAC8BFB0EE409A112DAAEC010AA5D187
:101C000069489FED6A8A012104F05FF9664A684BD2
:101C1000136168494FF0FF3310461F2553610AF0E6
:101C2000DCFF614800958F234C22092104F06DFBF5
:101C30005D48009529232422092104F0A6FB4FF6D4
:101C4000E0730093242258482923502104F09DFB7F
:101C50004FF000084C2209264FF08F09B5EEC09ACC
:101C6000F1EE10FAC4BF94ED007AC7EE097A31465E
:101C700009FB08F64FEA261606F10906D8BF4B25E0
:101C800036B2C1BF67EE887AFDEEE77A17EE905A5A
:101C9000C5F14B05C8BFADB22DB2B8F1000F5FD191
:101CA00040F2FF730093404801232A46314608F171
:101CB000010803F0ABFEB8F1110F04F104044DD19B
:101CC000394C3D4B3D49236120464FF01F13636162
:101CD0000AF083FF3A4B3B49236120460AF07DFF1F
:101CE000394B3A49236120460AF077FF384B39498E
:101CF000236120464FF0FF33636100250AF06DFF3A
:101D00008F26652209214FF0180837F8023B0A2078
:101D1000A3F50063584348BF00F2FF7006FB05F9C6
:101D2000C012B9FBF8F909F109090FFA89F9C0F1F4
:101D300065041DB34FF4FC6ACDE9004A1A484B46CE
:101D4000013503F08EFC192D19D12348514617B0E7
:101D5000BDEC088BBDE8F04FFFF798BD2A467DE744
:101D600040F2FF73CDE900530F48334603F079FC8E
:101D7000B8F1080F94D14FF6E07393E7012522469E
:101D80004946C2E7AFF30080182D4454FB211940A7
:101D90000000000000007A440000FA46A40300207E
:101DA00000000045A00300204C030020000010426A
:101DB00004001F00F3F4000807004E000DF60008B1
:101DC0004A004E00D8F400088D004E00DBF40008F5
:101DD00004005900DEF40008E1F4000800000000EF
:101DE0002DE9F041934B2DED048B93F8008090B0DA
:101DF0000446B8F1000F00F0888306234FF4FA552B
:101E0000B0FBF5F5B5FBF3F203FB12558A4B1A68EC
:101E1000AA4211D1042A40F07883884A1368C31A71
:101E2000772B40F272830021106010B0BDEC048B60
:101E3000BDE8F041FFF77CBD814F1D600FCF0AAEBA
:101E40000FC697E8030010AB86E8030003EB850399
:101E5000E9B253F8180CFFF7AFFC042D00F25A83D7
:101E6000DFE815F0050022010C02E8024E03754B75
:101E7000DFED751A9FED751ADFED750A93ED000A17
:101E80002046FFF761FB734BDFED731ADFED730A3A
:101E9000F0EE408A204693ED000AB1EE001AFFF7FB
:101EA00053FB6F4BB0EE408A93ED000AB4EE400A4C
:101EB000F1EE10FAC0F1AD806A4907A80BF00DF8F9
:101EC0004FF00008222068494FF4FC6307AAFFF78F
:101ED000B9FC07A80AF0B9FFB8F1000F05D004A8B3
:101EE0000AF0B3FF01A80AF0B0FFB0EE680A0121C2
:101EF00004A8FFF717FB04A907A80BF00FF85B492C
:101F000007A80BF073F85A4902464FF4FC633020DF
:101F1000FFF798FC07A80AF098FF04A80AF095FFBD
:101F2000544B022193ED000A04A8FFF7FBFA04A921
:101F300007A80AF0F3FF504907A80BF057F84F49DC
:101F400002464FF6E0733E20FFF77CFC07A80AF03C
:101F50007CFF04A80AF079FF494B022193ED000AA7
:101F600004A8FFF7DFFA04A907A80AF0D7FF45493C
:101F700007A80BF03BF8444902464FF6E0734C20AB
:101F8000FFF760FC07A80AF060FF04A80AF05DFFF5
:101F90003E4B022193ED000A04A8FFF7C3FA04A9FF
:101FA00007A80AF0BBFF3A4907A80BF01FF84FF447
:101FB000FC63024637495A20FFF744FC07A80AF0A1
:101FC00044FF04A80AF041FFB0EE480A012104A82A
:101FD000FFF7A8FA04A907A80AF0A0FF2E4907A84E
:101FE0000BF004F82D4902464FF4FC636820FFF71C
:101FF00029FC07A80AF029FF04A80AF026FF2848B0
:1020000040F2FF7110B0BDEC048BBDE8F041FFF76A
:102010003DBC01A80121FFF785FA01A904A80AF037
:102020007DFF204904A80AF0E1FF014607A80AF055
:1020300075FF47E7CC01002000000020AC01002024
:10204000E0F300084000002000D084463333B33F63
:10205000CDCC64412400002000204B460000F24219
:102060004400002002F5000809F5000843F40008C8
:102070000EF500083000002013F5000818F50008E0
:102080002C0000201EF5000821F500083400002077
:1020900027F500082EF5000833F5000837F500088D
:1020A0003BF5000806F50008B54B1D78002D00F043
:1020B000DF80B44B93ED000ADFEDB31A9FEDB31A46
:1020C000DFEDB30A2046FFF73FFAF0EE408A002D1D
:1020D00000F0D180AF4BDFEDB07A93ED007A87EE60
:1020E000270A2046DFEDAD1A9FEDAD1ADFEDAD0AF0
:1020F000FFF72AFA204668EE809AB0EE408AFEF793
:1021000001FA9BA3D3E90023FEF776FA9AA3D3E959
:102110000023FEF79BFBFEF767FD00EE100A0CF0B4
:1021200017F89FEDA17ADFEDA17AE0EE077A0121A1
:1021300004A89FED9F7AB0EE670ADFED9E7A60EE0D
:10214000277A87EE879AFFF7EDF904A907A80AF026
:10215000E5FE994907A80AF049FF4FF4FC630246DF
:1021600096492220FFF76EFB07A80AF06EFE04A82E
:102170000AF06BFEB0EE680A022104A8FFF7D2F95C
:1021800004A907A80AF0CAFE8D4907A80AF02EFF85
:102190004FF4FC6302468B493020FFF753FB07A83E
:1021A0000AF053FE04A80AF050FEB0EE480A0321DC
:1021B00004A8FFF7B7F904A907A80AF0AFFE8249FF
:1021C00007A80AF013FF4FF4FC6302467F493E2044
:1021D000FFF738FB07A80AF038FE04A80AF035FE1E
:1021E000B0EE690A022104A8FFF79CF904A907A828
:1021F0000AF094FE764907A80AF0F8FE4FF4FC6353
:10220000024674494C20FFF71DFB07A80AF01DFE8B
:1022100004A80AF01AFEB0EE490A012104A8FFF74B
:1022200081F904A907A80AF079FE6B4907A80AF00A
:10223000DDFE4FF4FC63024668495A20FFF702FBBB
:1022400007A80AF002FE04A80AF0FFFD644907A8E7
:102250000AF043FE634940F2FF7307AA6820FFF7C4
:10226000F1FA07A80AF0F1FD5F4840F2FF71C9E6F4
:102270009FED5E0A20E79FED5D0A32E75C495D4C09
:1022800007A80AF02AFE4FF4FC6307AA5A49242043
:10229000FFF7D8FA07A80AF0D8FD584907A80AF0AE
:1022A0001CFE57494FF4FC6307AA3220FFF7CAFA15
:1022B00007A80AF0CAFD534B2268534907A8002A11
:1022C00008BF19460AF009FE23685049002B0CBFCD
:1022D0004FF4FC634FF4784307AA4020FFF7B2FAAB
:1022E00007A80AF0B2FD4A4907A80AF0F6FD4FF424
:1022F000FC6307AA47494E20FFF7A4FA07A80AF093
:10230000A4FD454907A80AF0E8FD07AA43494FF490
:10231000FC635C20FFF796FA07A80AF096FD404B95
:10232000022193ED000A04A8FFF7FCF804A907A80E
:102330000AF0F4FD3B4907A80AF058FE3A4B3B4926
:102340001B78002B02460CBF4FF478434FF4FC631C
:102350006A20FFF777FA07A80AF077FD04A80AF0C9
:1023600074FD334840F2FF714CE600BFAFF30080CC
:10237000182D4454FB211940000000000046DE40A7
:10238000CB0100202000002000B0B346CDCCCC3CD7
:102390003D0A3F411C00002000007A4400A00C468A
:1023A000A69BC43B8B6CE73D9A99993ECDCCA44249
:1023B0000000C842CDCC664253F5000856F500082F
:1023C0005EF5000861F5000869F500086CF5000885
:1023D00074F5000877F500087DF5000881F5000820
:1023E00088F5000890F5000897F500080000C07F08
:1023F000AFF500089C030020BBF50008C2F50008FB
:10240000D0F50008F7F400087EF40008D6F50008BF
:10241000DAF50008E3F50008E7F50008F0F5000834
:1024200074000020D3F400089603002005F600088D
:10243000F4F500083B4907A80AF04FFD4FF4FC6390
:1024400007AA39492220FFF7FDF907A80AF0FDFC89
:10245000364907A80AF041FD4FF4FC6307AA344946
:102460002E20FFF7EFF907A80AF0EFFC2D4907A887
:102470000AF033FD4FF4FC6307AA2E493A20FFF718
:10248000E1F907A80AF0E1FC2B4907A80AF025FDAD
:102490004FF4FC6307AA29494620FFF7D3F907A8A0
:1024A0000AF0D3FC264907A80AF017FD4FF4FC6395
:1024B00007AA24495220FFF7C5F907A80AF0C5FC6E
:1024C0001F4907A80AF009FD4FF4FC6307AA1E493B
:1024D0005E20FFF7B7F907A80AF0B7FC1B4907A869
:1024E0000AF0FBFC1A494FF4FC6307AA6A20FFF7C5
:1024F000A9F907A80AF0A9FC164840F2FF7181E586
:102500002046FFF78BFA144B1C6010B0BDEC048B17
:10251000BDE8F08110B0BDEC048BBDE8F041FFF7E1
:1025200007BB00BF17F600080AF6000810F60008FF
:102530000EF900081EF6000826F6000877F50008D8
:10254000ACF400082EF6000835F600083CF600084A
:1025500046F600084AF60008AC01002070B50646B1
:102560002DED028B15480D462221B0EE408A14460F
:102570000AF037FB314611480AF02FFB10490F488B
:102580000AF02BFBB4EE488AF1EE10FA0CD70D4995
:102590000A480AF022FB74B9BDEC028B0748BDE87B
:1025A00070402C210AF01DBB2946B0EE480A0348B2
:1025B0000AF03CFCEFE7BDEC028B70BDDC060020AE
:1025C000F8F600085EF60008092810B5044603D89E
:1025D000054830210AF005FB21460348BDE81040BC
:1025E0000A220AF057BB00BFDC060020632810B5A2
:1025F000044609D8084830210AF0F3FA092C03D818
:10260000054830210AF0EDFA21460348BDE81040A4
:102610000A220AF03FBB00BFDC060020F8B52449BF
:10262000044624480AF0D9FA1C232348B4FBF0F0EE
:10263000B0FBF3F203FB12000130FFF7C5FF54219A
:102640001C480AF0CEFA18221C4BB4FBF3F3B3FB80
:10265000F2F002FB1030FFF7B7FF3C253A21154896
:102660000AF0BFFA4EF66023B4FBF3F3B3FBF5F0C8
:1026700005FB1030FFF7A8FF3A210E480AF0B1FA27
:102680004FF47A77B4FBF7F6B6FBF5F005FB106074
:10269000FFF79AFF2E2107480AF0A3FA07FB16401E
:1026A000FFF7A4FFBDE8F84002485A210AF099BAA2
:1026B00063F60008DC060020005C260580EE36008C
:1026C0002DE9F843B54BB64CB64F2DED068BD3ED47
:1026D000009AB54B97ED00AA93ED009A2378054632
:1026E000002B00F01D82B14BD3ED007AF4EE677A37
:1026F000F1EE10FA80F114829FEDAD7AAD4BC7EE8A
:10270000878A93ED008AB4EE688AF1EE10FA80F1C0
:102710000C8228EE288AA849A848DFF88C83A84EA6
:102720000AF05BFAA74BA54819684A1C1A600A22EE
:102730000AF0B0FAA449A1480AF04FFA2846FFF778
:102740006DFFA2499D480AF048FA98ED000AA0489A
:1027500000220221FFF702FF9E4800220121B0EE75
:102760004A0AFFF7FBFE9C4800220321B0EE690AEB
:10277000FFF7F4FE994800220221B0EE490AFFF764
:10278000EDFE974B974893ED000A00220321FFF7D7
:10279000E5FE0122114696ED000A9348FFF7DEFEA2
:1027A000924986480AF019FA2378002B00F0C0817C
:1027B000804B93ED000A8E488E4DDFF8F092002298
:1027C0000221FFF7CBFE8C4800220321B0EE680AFD
:1027D000FFF7C4FEB0EE480A002288480321FFF745
:1027E000BDFE874975480AF0F8F9864973480AF032
:1027F000F4F9854971480AF0F0F9844B2978844A44
:102800006E48002918BF1A4611460AF0E6F98149B8
:102810006A480AF0E2F9D9F80030002B00F08B8109
:102820007D4966480AF0D9F9D9F8001063480A22B0
:102830000AF030FA794961480AF0CFF978495F48DF
:102840000AF0CBF9774B5D481988774B1B880A2231
:10285000C91A0AF02EFA754958480AF0BEF97449A7
:1028600056480AF0BAF9734B1B78002B40F0688188
:10287000714952480AF0B1F9704950480AF0ADF96F
:102880006F494E480AF0A9F96E494C480AF0A5F97B
:102890006D494A480AF0A1F9D7ED007AF4EE677A5B
:1028A000F1EE10FAC0F15681684944480AF095F9F2
:1028B000674B424893ED000A02210AF0B7FA6549D6
:1028C0003E480AF08AF964493C480AF086F96349AF
:1028D0003A480AF082F9624B624A1978624B3748EB
:1028E000002918BF1A4611460AF077F95F493348A4
:1028F0000AF073F921785B4B5D4C3048002918BF12
:10290000234619460AF069F95A492C480AF065F934
:10291000594B2A481978534B002918BF23461946AA
:102920000AF05BF9554925480AF057F9544B2348FA
:1029300019784C4B002918BF234619460AF04DF967
:1029400050491E480AF049F94F4B1C481978454B2D
:10295000002918BF234619460AF03FF94B4917488A
:102960004B4C0AF03AF9D6ED007A4A4B4A491348E3
:10297000F4EE677AF1EE10FA68BF19460AF02DF905
:1029800046490E480AF029F945490C480AF025F94C
:1029900044490A480AF021F92B7889E030000020E8
:1029A000CB010020400000202C0000201C00002053
:1029B00000007A4420000020C0F60008DC06002059
:1029C00024000020BC010020FBF600080AF70008E4
:1029D00023F700082FF7000839F7000842F700082E
:1029E0003400002048F7000855F700085EF700089B
:1029F0006AF700089603002072F700087AF70008CB
:102A000080F70008ACF70008B7F700086CF600087C
:102A10007EF60008D0F70008F6F7000815F8000861
:102A200039F80008940300206C00002056F80008D4
:102A30005FF80008C60100206BF80008A1F8000844
:102A4000B3F80008C0F80008DBF80008EBF800084D
:102A50003C0000205FF50008F9F8000812F90008B2
:102A6000CC010020A0F6000892F600081CF900082E
:102A700017F6000829F90008C901002036F90008F6
:102A8000C801002040F90008C701002053F90008E0
:102A900074000020A8F60008B0F6000861F90008EC
:102AA00091F90008C8F90008440000209C030020A8
:102AB000002B51D0334934480AF08FF8022194EDAD
:102AC000000A31480AF0B2F930492F480AF085F877
:102AD0002F492D480AF081F82E4B2B4819680A22FD
:102AE0000AF0D8F82C4928480AF077F80A22192168
:102AF00025480AF0DEF8294923480AF06EF8284BE9
:102B0000214819680A220AF0C5F826491E480AF029
:102B100064F8BDEC068B1C48BDE8F8430AF064B8C5
:102B2000DFED218AB0EE688AF5E59FED1F8AF2E5B8
:102B30009FED1D0A3FE61D4913480AF04EF879E65D
:102B4000D8ED007AF4EE677AF1EE10FA6CBF18490E
:102B500018498EE61849B3E618490B480AF03DF8C3
:102B600094ED000A084802210AF060F91449064869
:102B70000AF033F8134B044893ED000A02210AF0DF
:102B800055F9A5E7EDF90008DC060020F5F9000885
:102B900010FA0008A003002028FA000836FA0008FE
:102BA0009803002053FA00080000C07FFDF70008DA
:102BB0007EF8000890F80008C0F80008FAF900084C
:102BC00005FA00087000002007B50D230322CDE9A7
:102BD00000320A210B2306220F4803F011FF0F4891
:102BE000C42104F087FB0D490D4804F05FF8402133
:102BF0000C4803F0D8FD41210B4803F0D4FD0B48ED
:102C000000F076F90A48002343604361183003B0AE
:102C10005DF804EB04F0A8BC4C030020380300204E
:102C20001803002004030020F0020020F00100201F
:102C3000D001002008B5044803F0BCFDBDE8084001
:102C4000024803F0B7BD00BFF002002004030020DB
:102C500010B50AF0D9FC214A536813F4507F04469A
:102C600006D01F490B6801330B604FF47463D360C7
:102C70001C4A536B9B0406D51B490B6801330B6040
:102C80004FF400535363194809F030FD30B1174831
:102C900009F056FF7A2801D1FEF7BCF92046FEF76D
:102CA000DBFB134A1368E31AF92B06D91460FEF70D
:102CB000CDF9FEF7A5FAFEF7EBFA2046FFF790F8FC
:102CC0000C4A1368E31AB3F57A7F05D314602046E3
:102CD000BDE81040FFF7F4BC10BD00BF006002402B
:102CE0009C0300200074004098030020DC060020B4
:102CF000A8010020A401002038B540F213424FF48F
:102D0000E1315648564D574C09F0D2FE0C200AF0DE
:102D100001FBFEF705F8012107200AF02FFB002137
:102D200008200AF02BFB002107200AF091FB4E4BF4
:102D30004E499A6BC1F88420DB6BC1F888304B4850
:102D4000002101F05BFDFEF769FB40F2DC500AF068
:102D50005FFC4748022103F06DFE4548012103F066
:102D6000D5FD434A0023D376FEF756FC414B3F493D
:102D7000414801221A7003F0B0FD3C4928703F48D9
:102D800003F0ABFD2B78207013B13B4803F07BFDC3
:102D9000237813B1394803F076FD344A3848394C6A
:102DA000772100F009F900283BD0012303213448A2
:102DB000237000F089F90221314800F092F90221D4
:102DC0002F4800F09BF92E48022100F0A4F9274972
:102DD0002D482E4C6B22FDF791FF28B923492A4834
:102DE0006A22FDF78BFF28B301232748237004F0E4
:102DF00084FC254804F08AFC58B364200AF008FCDF
:102E00000121214804F071FC01211F4804F08FFCCE
:102E100004211D4804F093FC02211B4804F0D3FB5D
:102E200009E0124A1648762100F0C6F80028BCD105
:102E30002070CCE720700D49154804F0EAFE154BD0
:102E4000187010B1124804F0F4FEBDE83840FEF7E7
:102E5000E1B801200AF0DCFBCBE700BFDC06002074
:102E6000CB010020CA0100206C0D0108E003002006
:102E70004C030020CC01002004030020F0020020BD
:102E8000F0010020C9010020D0010020C80100206D
:102E90004C000020C70100201FB58DF80F000DF178
:102EA0000F000090012305480193006800F095FF92
:102EB00080F0010040B205B05DF804FBDC030020A7
:102EC0001FB50B460021CDE900218DF80F00064803
:102ED00001220DF10F01006800F0F2FF80F0010007
:102EE00040B205B05DF804FBDC0300200AF09EBB95
:102EF0000022C0E90422826182627047F0B52B4B48
:102F0000026989B01A602A4B42691A6000F13007E1
:102F1000284B43640546384600F036FC50B9384625
:102F200000F070FC3B46152202A9312000F048FA5F
:102F3000034610B1002009B0F0BD02AAFF2412F828
:102F4000011B082681EA0400C0094FEA440406F187
:102F5000FF3614BF1D200020E4B2490016F0FF0622
:102F6000C9B284EA0004EDD10133DBB2152BE6D1FE
:102F70003B4601220DF10701302000F021FAE44325
:102F80009DF80730E4B2A342D4D10028D2D1032364
:102F900085F8E63001204FF0807385F8E360A5F8EE
:102FA000E460AB6185F8E000C5E700BFDC0300200A
:102FB000D8030020ED2E00082DE9F04104460069F9
:102FC0000E46174610B1102108F00BF9656935B1AE
:102FD000284600F08CFF1421284608F002F94FF033
:102FE0000008C4F81480102008F0F9F83A460546A5
:102FF00031460F4F00F0C3FE2561012128463D6098
:1030000000F0DBFE88B1012384F83830094BE3631C
:10301000094B236484F830603B6884F83A8063632A
:103020002046BDE8F041FFF769BFBDE8F08100BF71
:10303000DC030020C12E0008992E00087FB5204B2C
:1030400002691A601F4B42691A6004460123427EDE
:1030500080F8E23084F8E130A37E002A14BF2420F7
:10306000042083B940F00200237EE27E9B0104F13C
:10307000300643EAC2133146184300F053FA28B130
:10308000002004B070BD40F01200EDE7012584F887
:10309000E050304600F0CDFC0028F1D132466946C0
:1030A000032000F03FFD0028EAD1DDE90023C4E958
:1030B0000023DDE902232846C4E90223E1E700BF3B
:1030C000DC030020D8030020052908D880F8E4108C
:1030D00011B941760120704701234376FAE70020B9
:1030E0007047052908D880F8E31011B981760120CE
:1030F000704701238376FAE700207047072908D834
:1031000080F8E51011B9017601207047012303769C
:10311000FAE700207047112903469DBF80F8E610AA
:103120000120D8760020704758B1C3684BB10369BD
:103130003BB143692BB14068B0FA80F0400940428E
:1031400070474FF0FF3070472DE9F04F2DED028BA7
:10315000834685B015461C468A46002900F0DF806C
:10316000002A00F0DC8010F0030F05D1002005B02C
:10317000BDEC028BBDE8F08F4868FDF7C3F9D4E9D8
:103180000023FDF781F802460B4606460F46FDF781
:1031900033FAD4E90423FDF72FFAD4E90223804659
:1031A000894630463946FDF727FA02460B46404627
:1031B0004946FDF76BF81BF0010F80468946C4E9CC
:1031C0001C89C5E90089D1D0FDF70EFD08EE100A73
:1031D00068EE088A18EE900AFDF7B6F968EE287ACC
:1031E000CDE9000117EE900AFDF7AEF9CDE9020135
:1031F000DAF80000FDF786F98B468246FDF7F4FC0D
:10320000D4E9082308EE100A49464046FDF7F4F9D0
:10321000D4E90623FDF73AF8D4E90A2306460F4617
:10322000DDE90001FDF7E8F902460B463046394674
:10323000FDF72CF8D4E90C2306460F46DDE9020120
:10324000FDF7DAF902460B4630463946FDF71EF81F
:1032500052465B46FDF7D0F9D4E9102382468B46EF
:1032600040464946FDF7C8F9D4E90E23FDF70EF8AC
:10327000D4E9122306460F46DDE90001FDF7BCF94B
:1032800002460B4630463946FDF700F8D4E91423D0
:1032900006460F46DDE90201FDF7AEF902460B4690
:1032A00030463946FCF7F2FF02460B465046594677
:1032B000FCF7ECFFD4E9182306460F464046494682
:1032C000FDF79AF9D4E91623FCF7E0FF68EE088AC7
:1032D000804618EE900A8946FDF736F902460B46FD
:1032E00040464946FDF788F968EE287A804617EE91
:1032F000900A8946FDF728F9D4E91A23FDF77CF9ED
:1033000002460B4640464946FCF7C0FF02460B46C4
:1033100030463946FCF7BAFFC5E9020126E74FF00F
:10332000FF3024E710B5044692B021494822684690
:103330000AF01CFB94F8B13073B194F8B330B7EED7
:10334000007A5BBBDFED1B6ADFED1B7AE7EE267AC6
:10335000FCEEE77A17EE903A94F8B2207AB194F83E
:10336000B420B7EE007AF2B9DFED126ADFED137A1E
:10337000E7EE267AFCEEE77A17EE902A134494F8EB
:10338000B62012A901EB8202EA3352F8482C9A4285
:1033900094BF6FF00200002012B010BD013B37EE69
:1033A000077ADBB2CDE7013A37EE077AD2B2DAE735
:1033B000F8F300080000FA440000C44300809C4376
:1033C0002DE9F04F83B0064600AF18461C46FFF7C4
:1033D000ABFE89469046054690BB89B3A07A94F827
:1033E00008C0C7F804D01044C31D23F00703ADEB99
:1033F000030DBCF1010FD4F80CA06368EB461BD0A1
:103400000246694646F08000D047607245450BD1C0
:1034100094F90900D7F804D0002818BF6FF006000F
:103420000C37BD46BDE8F08FA37A0BEB0502D35CE9
:1034300009F805300135E9E73046D0476072E7E723
:103440004FF0FF30ECE72DE9F843144652001E46DA
:10345000D31D23F0070300AF8046ADEB030D3046CC
:1034600089466946FFF760FEA0BBB8F1000F31D076
:10347000B9F1000F2ED084B3357A99F800308DF869
:1034800000304DB918F8053003F07F0308F8053017
:103490000135EDB2A542F5D3012C19D001234D1E03
:1034A00018F8030005F8130019F8030001F81300D9
:1034B00001339C42F4D83469736898F80000A0473F
:1034C0000028707218BF6FF00600BD46BDE8F88393
:1034D0002246F0E74FF0FF30F7E76FF00500F4E722
:1034E00037B5044623461B2001220DF1070194F84D
:1034F000B0508DF80600FFF763FF88B99DF80730DC
:103500002D0123F0300305F030052B438DF80730F3
:10351000012223460DF107010DF10600FFF793FF8D
:1035200003B030BDF7B5054608460E46FFF7FCFD73
:10353000002840F0268115F0060F29D01B200B46ED
:10354000012201A98DF80000FFF73AFF00BBAF0789
:103550000AD59DF8043096F8B12023F0010302F05B
:10356000010213438DF804306C070BD596F8B23086
:103570009DF804205B0003F0020322F002021343D3
:103580008DF804303346012201A96846FFF75BFF3E
:1035900015F0F00F73D0002871D10422ADF80000AF
:1035A0008DF8020033460DEB02011C206F46FFF739
:1035B00007FF002863D115F0300F00F0DD80E8062A
:1035C00096F8B4200AD59DF8043096F8B31023F08D
:1035D000070301F007010B438DF80430A90609D554
:1035E0009DF80430D20023F0380302F03802134370
:1035F0008DF804301C238DF8003001242A0617D5DD
:1036000096F8B63004F108020DEB02019DF8052092
:10361000112B88BF112322F01F0288BF86F8B63015
:10362000134301F8043C601C1D2301F8083CC4B29C
:103630006B0614D504F108030DEB030196F8B530C1
:103640009DF807205B0003F00E0322F00E021343E7
:1036500001F8043C601C1F2301F8083CC4B296F832
:10366000B030032B05D13046FFF75CFE002840F058
:1036700085803346224601A93846FFF7E4FE15F45B
:10368000E16F48D0002846D119203346012269460F
:103690008DF80400FFF794FE00283CD1EF0596F862
:1036A000B80096F8B91096F8BA200AD59DF80030FF
:1036B00096F8B74023F0010304F0010423438DF88A
:1036C0000030AC0509D59DF80030400023F002031E
:1036D00000F0020003438DF80030680509D59DF81D
:1036E0000030890023F0040301F004010B438DF83E
:1036F0000030290709D59DF80030920123F04003DE
:1037000002F0400213438DF800303346012269462F
:1037100001A8FFF798FE15F4C05F2BD050BB1A200C
:103720003346012201A996F8BB7096F8BC408DF88B
:103730000000FFF745FEE8B92A0509D59DF80430D9
:103740007F0023F0020307F002073B438DF80430AB
:10375000EB0409D59DF80430A40023F0040304F021
:10376000040423438DF804303346012201A968463E
:10377000FFF769FE03B0F0BD04463FE76FF00200BB
:103780007DE74FF0FF30F5E737B57E238DF8043045
:10379000B62304468DF80530FFF7C6FC78BB2346F8
:1037A00001220DF106010320FFF70AFE9DF8063005
:1037B000DB0600D520B16FF00305284603B030BD0D
:1037C000234601220DF1050101A8FFF73CFE054645
:1037D0000028F2D1636961684FF4FA609847234684
:1037E00001220DF107010220FFF7EAFD9DF80730E5
:1037F00003F07E030343DBB2002BDED0DBE74FF0A8
:10380000FF35DAE730B589B0002304468DF807307C
:10381000FFF78AFC002840F0DA80237A013B18BFCA
:103820000123A372012223460DF10701FFF7C8FD12
:103830000546002840F0C8809DF80730502B02D084
:10384000602B40F0C78023702046FFF79DFF0546A0
:10385000002840F0B9800146152202A80AF02BF892
:103860002346152202A93120FFF7AAFD0546BDF81F
:103870000800A4F89000FCF745FE584B0022FCF726
:10388000BBFEC4E90601BDF80A00A4F89200FCF7EB
:1038900039FE534B0022FCF7AFFEC4E908019DF945
:1038A0000C0084F89400FCF73DFE4E4B0022FCF720
:1038B000A3FEC4E90A01BDF90D00A4F89600A0F525
:1038C0008040FCF72FFE484B0022FCF795FEC4E930
:1038D0000C01BDF90F00A4F89800A0F58040FCF79A
:1038E00021FE424B0022FCF787FEC4E90E019DF940
:1038F000110084F89A00FCF715FE3D4B0022FCF7FE
:103900007BFEC4E910019DF9120084F89B00FCF7CE
:1039100009FE384B0022FCF76FFEC4E91201BDF826
:103920001300A4F89C00FCF7EDFD334B0022FCF7DC
:1039300063FEC4E91401BDF81500A4F89E00FCF76D
:10394000E1FD2E4B0022FCF757FEC4E916019DF95C
:10395000170084F8A000FCF7E5FD294B0022FCF7D6
:103960004BFEC4E918019DF9180084F8A100FCF78A
:10397000D9FD00224FF07C53FCF73EFEC4E91A014A
:10398000BDF91900A4F8A200FCF7CCFD154B0022EC
:10399000FCF732FEC4E91C019DF91B0084F8A40069
:1039A000FCF7C0FD0F4B0022FCF726FEC4E91E0108
:1039B0009DF91C0084F8A500FCF7B4FD114B002212
:1039C000FCF71AFEC4E92001284609B030BD4FF0CB
:1039D000FF35F9E76FF00105F6E700BF0000704022
:1039E0000000103E0000F03C0000B03E0000203E11
:1039F0000000F03D0000A03D000020400000903F8E
:103A00000000703F0000E03B10B504460846FFF799
:103A10008BFB58B954B10B46012221461B20FFF7FE
:103A2000CFFC2378C3F30113237010BD4FF0FF3098
:103A3000FBE773B50546FFF777FB00286FD12946F2
:103A40000DF1020095F8B060FFF7DEFF9DF802303F
:103A50000446E3B11B202B46012201A98DF8030087
:103A6000FFF7AEFC044668B99DF8043023F030033C
:103A70008DF8043001222B4601A90DF10300FFF758
:103A8000E2FC04466B69696841F288309847CCBB18
:103A9000032E3DD104222B460DEB02011C20FFF723
:103AA0008FFC9DF8043003F00702C3F3C20385F8CE
:103AB000B4309DF8053085F8B32003F01F0385F876
:103AC000B6309DF80730C3F3420385F8B53004469D
:103AD000C0B92846FFF726FCB8B92846FFF700FD15
:103AE000044678B92B46012201A90220FFF768FCA1
:103AF000044638B99DF8043013F0040F0CBF044697
:103B00006FF00404204602B070BD6FF00204F9E7C4
:103B1000012EF7D12846FFF7E3FC0446F2E74FF009
:103B2000FF34EFE7F0B585B0002307461046CDE936
:103B300002330E4615460093ADF80430FFF7F4FA51
:103B400030BB29B31346694606220420FFF738FC30
:103B5000E0B99DF802309DF801209DF805401B0456
:103B600043EA02239DF80020134302939DF804309A
:103B7000240444EA03249DF8033032461C4302A97E
:103B800005F1180338460394FFF7DEFA05B0F0BDDF
:103B90004FF0FF30FAE730B50025C0E90015C281CB
:103BA0009DF810109DF80C20856141748274037497
:103BB00030BDF0B5C389847B85B005460068ADF89B
:103BC0000C300E4617464FEA132E40B16B7C019322
:103BD00003AB0093012300F000F905B0F0BD686865
:103BE00058B395F80CC06B7CBCF1030F0BD10133BB
:103BF0002EF0010E00938DF80CE08DF80D4003AB14
:103C000000F06DFAE9E7BCF1000F08D104F07F0481
:103C10008DF80C4000933A4603AB3146F0E7BCF117
:103C2000020F02D164F07F04F2E7BCF1010FF1D181
:103C300004F07F0444F04004EAE7A8680028CCD0F0
:103C400000920B466A7C03A900F08AF8C5E7F0B43D
:103C500003460C4602B9027C042A13D803F113016F
:103C60009C610D46D018984202D1F0BCFFF7A1BF6D
:103C70009F7CE6B227B92E70240A01350138F2E79D
:103C80008674F9E70020F0BC7047F0B50B46857BE1
:103C900085B004461146C2890068ADF80C20170AA9
:103CA00040B10022CDE9001203A9627C00F008F9BE
:103CB00005B0F0BD606820B3267B627C032E0DD179
:103CC000FF24CDE9001447F001078DF80C708DF842
:103CD0000D50013203A900F024FAE9E73EB965F07E
:103CE0007F058DF80C50FF24CDE90014F2E7022E79
:103CF00002D105F07F05F4E7012EF4D165F03F0510
:103D0000EFE7A0680028D3D00091627C03A900F0FF
:103D100018F8CDE738B502220D4600F1130104462C
:103D2000FFF7B3FF38B1A37C33B9237D1B022B808F
:103D3000E27C13432B8038BDE37C1B022B80227D69
:103D4000F7E730B4047CBDF8085034B1846824B17E
:103D50000295A446406930BC6047002030BC7047E3
:103D600030B4047CBDF8085034B1C46824B1029565
:103D7000A446406930BC6047002030BC70474260B8
:103D80000022027220220170C2607047037A10B5CF
:103D9000044663B1606821780368DB6A984760680D
:103DA00003685B6B9847B0FA80F0400910BD0121B1
:103DB00000F003F80028EDD1F8E738B50446406874
:103DC0000368DB690D4698470120207225B1204623
:103DD000BDE83840FFF7DABF38BD2DE9F843DDE92B
:103DE00008961F46C368154632449A4204468846E0
:103DF00002D90020BDE8F883406821780368DB6AB7
:103E0000984786B9606803682A465B6841469847C8
:103E1000A842EED16068036839461B6B9847B0FA38
:103E200080F04009E6E7B9F1000FEBD06068036865
:103E300032465B6849469847B042DAD1E2E72DE95D
:103E4000F04105464068144602680F46966B297893
:103E5000E2B2B047844210D100261FFA86F8A0458E
:103E600006F1010602D30120BDE8F081686803680D
:103E70005B69984707F80800EFE70020F4E72DE9B1
:103E8000F84307468846164699460025B54202D3B0
:103E90000120BDE8F883FB68741B9C4228BF1C46C8
:103EA000331BAB428CBF002309F00103224608EB11
:103EB00005013846FFF7C3FF0028EAD02544E5E7AF
:103EC00073B51D460023CDE900339DF81C30069ED6
:103ED0000446FFF782FF40B10123324629462046BF
:103EE00002B0BDE87040FFF7CABF02B070BD10B5A8
:103EF0000446406810B1082107F073F9204610BD50
:103F00002DE9F74F044600680F46134628B10368B1
:103F10001B6903B0BDE8F04F1847227B91F8008081
:103F20004E4D002A14BF4FF0800B4FF0010B0BEAEF
:103F30000808B8FA88F8CB18A2680093B5FBF2F528
:103F40004FEA5818EDB2009BBB4202D103B0BDE866
:103F5000F08F97F800A05E464FF0000915B1284693
:103F600009F064FB637B13F0FD0F36D194F9100068
:103F7000421C07D00AEA0601003918BF0121414559
:103F800026D1884694F90F00012109F061FA15B194
:103F9000284609F04BFB94F91100431C04D009F0AA
:103FA0008FFA08B146EA090994F90F00002109F0D7
:103FB0004FFA237B002B4ED17600F6B2002ECDD1E6
:103FC00094F91130013318BF87F800900137BAE730
:103FD000019109F03DFA0199D3E7032B24D194F91B
:103FE0001000411C03D00AEA060109F031FA94F9E5
:103FF0000F00002109F02CFA15B1284609F016FB34
:1040000094F90F00012109F023FA15B1284609F0AF
:104010000DFB94F91100431CCBD009F051FA002894
:10402000C7D046EA0909C4E794F90F00012109F055
:104030000FFA15B1284609F0F9FA94F91000421C5C
:1040400003D00AEA060109F003FA94F90F000021EF
:1040500009F0FEF9DDE77608B0E700BF20A1070010
:1040600007B501228DF807100DF10701FFF748FF92
:104070009DF8070003B05DF804FB0346006810B428
:1040800040B102685B68D46993E8060023465DF896
:10409000044B18475DF8044B7047006810B1036883
:1040A0001B6A1847704790F90E00431C02D0C9B232
:1040B00009F0CEB9704710B50446FFF7DEFF204681
:1040C0000021BDE81040FFF7EEBF10B50121044606
:1040D000FFF7E9FF2046BDE81040FFF7DEBF2DE9FE
:1040E000F0411C4606460D461746FFF7E4FF069BC7
:1040F00004EB0308444508D12F44BD420BD13046A0
:10410000FFF7E3FF0120BDE8F08114F8011B304602
:10411000FFF7A6FFEEE715F8011B3046FFF7A0FFFB
:10412000EBE72DE9F0410D4617469DF81C80064649
:104130001C46FFF7C0FF2F44BD4209D1069BE5187E
:10414000AC420BD13046FFF7C0FF0120BDE8F08143
:1041500015F8011B3046FFF783FFEDE74146304677
:10416000FFF77EFF04F8010BEAE7002070470368C1
:1041700010B49C6B0123A4465DF8044B60470123F7
:10418000994080F824300023817643847047036887
:1041900001211B6B1847028BC08A101A7047C28A14
:1041A000018B914288BF0169034683BF885C01325D
:1041B000DA824FF0FF307047028BC38A9A4286BF83
:1041C0000269D05C4FF0FF30704738B504462830A4
:1041D00000F00CFCE06918B109F046FA0023E36135
:1041E00020690025258410B109F03EFA2561A582D9
:1041F00038BD000038B5044600F12805284600F017
:1042000045FC94F8BE304BB92846054900F03EFD08
:1042100028460449BDE8384000F031BD38BD00BF34
:104220002942000823450008806DD0F8DC302BB10E
:1042300000234384D0F8E030D43018477047012A77
:1042400002D1016000207047022A05D0032AF9D06C
:10425000002AF7D10260F5E70B680360F2E7036814
:104260001847012A02D1016000207047022A05D0B8
:10427000032AF9D0002AF7D10260F5E70B68036042
:10428000F2E7036808681847836810B5044613B15D
:10429000032201469847204610BD000030B587B084
:1042A000024602AB002002900590C3E9010021B153
:1042B0000291114905911149049193E8030002F11B
:1042C000D404CDE9000194E8030083E80300DDE9AC
:1042D000000184E803000499D2F8DC000490C2F8DD
:1042E000DC10D2F8E0000599C2F8E01005901846FD
:1042F000FFF7CAFF07B030BD5F4200083F42000829
:1043000030B587B0024602AB002002900590C3E9A9
:10431000010021B10291114905911149049193E8DD
:10432000030002F1C404CDE9000194E8030083E82E
:104330000300DDE9000184E803000499D2F8CC0011
:104340000490C2F8CC10D2F8D0000599C2F8D01071
:1043500005901846FFF798FF07B030BD834200086C
:104360006342000870B54FF47A730E460021C0E92D
:104370000113034615462B4A43F8C42B0446C0F8E4
:10438000C4109C22C3E90111C0E93411C0E93611FF
:10439000C0F8E010283009F08EFAF3B2332B19D8A8
:1043A000214A52F8233006F4E0661E43EBB2332B69
:1043B000C4F8846022D81C4A52F8233005F4E06522
:1043C0001D430023C4F88850E36123842361A38242
:1043D000204670BD06F0C002C02A0CD1CF2B0AD8EF
:1043E000124B06F03F0206F4E06653F822200E4B13
:1043F00053F82230D9E74FF0FF36D7E705F0C00277
:10440000C02A0CD1CF2B0AD8084B05F03F0205F487
:10441000E06553F82220044B53F82230D0E74FF0E8
:10442000FF35CEE75CFC00086C0D01082C0D01087F
:1044300038B50546074B45F8D43B0446FFF7C5FEA3
:104440002846FFF721FF04F1C400FFF71DFF2046B7
:1044500038BD00BF5CFC000838B5838A8B42054636
:104460000C4609D2202938BF20240069214609F0D2
:10447000D3F910B12861AC8238BDFEE72DE9F843CD
:10448000984690F8BE309DF820509DF82490044640
:104490000F461646002B39D01146FFF7DDFF85B1D8
:1044A00023683946DB6A20469847032D28BF032539
:1044B000013DEDB2FF2D23681DD11B6B002120466D
:1044C0009847B9F1000F1ED14FF42A03B5B2790015
:1044D000A36522692B4601F0FE0104F1280000F0DB
:1044E00017FB002398421CBF1E463546E3822583F6
:1044F0003046BDE8F883E90028FA01F11B68C9B22B
:1045000020469847D4E74FF02A43DFE71846F0E704
:1045100007B5019300230093FFF7B0FF03B05DF8E8
:1045200004FB73B5846D866ED4F8CC300546E3B1D8
:10453000E28A238B9A4218D331462046FFF78CFF3C
:104540002069324605F1740109F010FA0023E38274
:10455000D4F8CC30268301960BB90AF031FFD4F899
:10456000D03001A904F1C400984702B070BDB1F584
:10457000806F70B505460C4610D8038C99420AD955
:1045800020290E4638BF2026C069314609F044F97B
:1045900018B1E8612E84204670BDFEE70024FAE7DA
:1045A00013B590F824308DF8071004467BB1418C88
:1045B0000131FFF7DCFF40B1638CE2699DF8071021
:1045C000D154638C01336384012002B010BD0122F9
:1045D0000DF10701283000F081FAB0FA80F04009AF
:1045E000F3E770B590F8243004460E46154693B1B3
:1045F000418C1144FFF7BBFF10B90025284670BD60
:10460000638CE0692A461844314609F0AFF9638C9F
:104610002B446384F2E792B2283000F05FFA00285E
:10462000EBD1EBE70346006918B19A8A002109F043
:1046300042B970470346C06918B11A8C002109F0CD
:104640003AB9704738B50446C9B94FF42A03A3658F
:1046500094F8BE30B3B1638CE269A17E04F1280006
:1046600000F0BCFA042828BF0420C5B22046FFF79A
:10467000E1FF0023638484F82430284638BD4FF0DE
:104680002A43E4E70425F8E738B504460025C58247
:104690000583FFF7C7FF65842046FFF7CBFF38BDD2
:1046A0002DE9F0410446D0F8840008F073FD0021A4
:1046B00008F064FED4F88430190641D4C3F3031221
:1046C000254E264D56F8222003F00F03126955F8A7
:1046D000233093433DD0D4F8880008F05BFD0121DE
:1046E00008F04CFE1427D4F8883013F080082AD143
:1046F000C3F3031203F00F0356F8222055F82330BA
:104700001B0493610A2008F091FFD4F888301A0640
:104710001CD4C3F3031203F00F0356F8222055F8FC
:10472000233093610A2008F081FF013FDBD1D4F8E8
:10473000880008F02FFD3946BDE8F04108F01EBEA4
:1047400000231B69FFDE00239B61FBE7C8F818808C
:10475000F8E7BDE8F08100BF84000020580401089C
:104760002DE9F04104460025C58205831F460E460B
:104770009046FFF757FF6584A5762046FFF75AFF5E
:10478000D4F8DC30C4F8804033B104F1D401032202
:1047900008469847C4E937550023012E84F8243091
:1047A0004FEA460384F825300CBF0123002384F828
:1047B000BE3084F8BF8084F8C07002D12046FFF775
:1047C0006FFF04F1280594F825200949284600F0D8
:1047D0002FF894F8BE304BB92846064900F056FA37
:1047E00028460549BDE8F04100F049BABDE8F0812E
:1047F000A086010029420008234500080A4600233C
:104800000121FFF7ADBF0021FFF7F8BF00231A46D3
:10481000FFF7A6BF02480F220E21FFF7A3BD00BF7E
:10482000E00300200148FFF703BE00BFE0030020C3
:10483000F0B50D4685B016460446002800F0BF804E
:104840006049C06D07F01EF95F490746206E07F00A
:1048500019F90146002F00F0B280002800F0AF8067
:10486000384607F036F92060002800F0A880574B42
:10487000984204F104075ED11F2384F864300023BA
:104880000193534B1A6C42F400121A641A6C02F42E
:1048900000120192019A1A6A42F400121A621A6A0C
:1048A00022F400121A62202384F86530494B1F60FD
:1048B0004549206E07F0CEF84249E06D07F0CAF88E
:1048C000454B21689D4274D9444B9D4203D9444BCA
:1048D0009D4288BF00234FF480420025C4E90113A4
:1048E0004FF48043C4E9053594F8973094F9640097
:1048F000E5619B01236294F8983084F84150DB0114
:1049000063620221C4E903262A4603F029FE94F9D2
:10491000640003F057FE94F965002A46022103F073
:104920001FFE94F9650003F04DFE384603F070FF5A
:10493000002840D0FEE72B4B98424FF000031BD1DC
:1049400002932122224B84F864201A6C42F48002E4
:104950001A641A6C02F480020292029A1A6A42F4F1
:1049600080021A621A6A22F480021A62222384F8F0
:104970006530184B5F609BE71B4A904298D10393C8
:10498000134B1A6C42F400021A641A6C02F400020F
:104990000392039A1A6A42F400021A621A6A22F413
:1049A00000021A6244F64813A4F86430094B9F6071
:1049B0007EE7002291E70223A06684F8953005B0D7
:1049C000F0BD00BFC80A01088C0A0108005400406D
:1049D00000380240C4040020A0860100801A0600AE
:1049E00040420F0000580040005C004010B50446F3
:1049F00090F9640003F0F4FD94F9650003F0F0FD14
:104A0000201D03F0AEFF206E032106F089FFE06D4C
:104A1000032106F085FF2368184A93420DD1184BF5
:104A20001A6A42F400121A621A6A22F400121A6216
:104A30001A6C22F400121A6410BD124A93420CD16F
:104A40000F4B1A6A42F480021A621A6A22F4800238
:104A50001A621A6C22F48002EDE70B4A9342EBD102
:104A6000074B1A6A42F400021A621A6A22F4000220
:104A70001A621A6C22F40002DDE700BF0054004005
:104A80000038024000580040005C0040104B994242
:104A900010B5044606D90F4B994203D90E4B9942E3
:104AA00088BF00232068026822F001020260A36030
:104AB000074B994294BF002101218903E160201D29
:104AC00003F0A6FE2268136843F00103136010BDD3
:104AD000A0860100801A060040420F00202A30B54F
:104AE00014D800239CB2A24207D890F89430134403
:104AF000DBB280F89430002030BD90F89440CD5C5B
:104B00001C440444013384F87450EBE70120F3E7BC
:104B10002DE9F34705460F469046994603F0BAFA49
:104B20000024D5F830A006460435CDF800A04B4649
:104B300042463946284604F041F8022806D103F0DF
:104B4000A9FA841B642CF0D906201FE008BB03F0EF
:104B5000A1FA0646284604F09BFF202809D0632CC2
:104B600007D803F097FA841B284604F094FF002826
:104B7000F0D0284604F08FFF632C0CD882060AD4AC
:104B800043070AD4003818BF0120800002B0BDE8F6
:104B9000F0870420FAE70520F8E70320F6E710B5D0
:104BA00064230446043003F0F5FE022810D00328E5
:104BB00006D090B194F84130202B18BF042004E0B7
:104BC00094F84130202B18BF052008BF022004E0D4
:104BD00094F84130202B18BF062010BD2DE9F34773
:104BE00004460E4691461F4603F054FA80463FB9EC
:104BF00001223146204602B0BDE8F047FFF7CFBFA3
:104C0000D4F830A000250434CDF800A03B464A4635
:104C10003146204603F06AFF022807D103F03AFA32
:104C2000A0EB0805642DEFD906201FE008BB03F0B8
:104C300031FA0646204604F02BFF202809D0632DC8
:104C400007D803F027FA851B204604F024FF00282C
:104C5000F0D0204604F01FFF632D0CD882060AD442
:104C600043070AD4003818BF0120800002B0BDE815
:104C7000F0870420FAE70520F8E70320F6E720B1E3
:104C800019B1C166043004F095B8704720B119B16C
:104C90000167043004F08EB8704770B590F8913019
:104CA000012B04460D46A0F1040609D1436E3BB129
:104CB000836E30469847022384F891300023636660
:104CC0008DB9E36E84F891501BB184F89050304652
:104CD000984794F8902004F1700120462023BDE805
:104CE000704003F0F1BF00230122636684F8912035
:104CF000616E7431314420460423BDE8704004F0F5
:104D00001EB810B590F89130012B044604D1436EC3
:104D100013B1836E04389847022384F8913000233E
:104D200063662046BDE8104004F044B8436E1F2B74
:104D3000DEBF436E0133436690F89130012BDAB247
:104D400005D1416E70310423014403F0F8BF704770
:104D5000002380F89030704790F892300BB104F047
:104D600029B87047014B186804F0A4B9C4040020A6
:104D7000014B186804F0F0BDC4040020014B5868D2
:104D800004F098B9C4040020014B586804F0E4BD55
:104D9000C4040020014B986804F08CB9C4040020BE
:104DA000014B986804F0D8BDC404002070477047D8
:104DB0007047043000F09ABA93B204300A4600F00B
:104DC000E7BA10B57821044606F00BFA204610BD6C
:104DD00007B50B68026F9A4205D1436F4A6853408A
:104DE00033F07F4312D00B6803678B88A0F87430D0
:104DF0008B7980F876304B798A790092003B0A797A
:104E0000096818BF0123043000F026F903B05DF8EB
:104E100004FB07B5CDE900126946FFF7D9FF03B0DF
:104E20005DF804FB2DE9F0411C46484B0360484BFC
:104E300003670D464FF480730021A0F874301646C6
:104E400080F8761007465C220430DDF8188008F000
:104E500032FDF3B2332B28D83E4A52F8233006F401
:104E6000E0661E43EBB2332B3E6632D8394A52F825
:104E7000233005F4E0651D43E3B2332B7D663CD857
:104E8000344A52F8233004F4E0641C435FFA88F299
:104E9000332ABC6645D82F4951F8222008F4E06334
:104EA0001343FB663846BDE8F08106F0C002C02A15
:104EB0000CD1CF2B0AD8284B06F03F0206F4E0664F
:104EC00053F82220234B53F82230CAE74FF0FF3625
:104ED000C8E705F0C002C02A0CD1CF2B0AD81E4B60
:104EE00005F03F0205F4E06553F82220194B53F812
:104EF0002230C0E74FF0FF35BEE704F0C002C02A01
:104F00000CD1CF2B0AD8144B04F03F0204F4E06418
:104F100053F822200F4B53F82230B6E74FF0FF34FE
:104F2000B4E708F0C003C02B0CD1CF2A0AD80A4B33
:104F300008F03F0253F82210064A08F4E06352F8E2
:104F40002120ADE74FF0FF33ABE700BFACFC00081A
:104F500000093D006C0D01082C0D010807B5084B38
:104F6000009300224FF480738DF8061080F85520CE
:104F70006946ADF80430FFF72BFF03B05DF804FB82
:104F800000093D000021FFF7E9BF07B5002A8DF8B1
:104F900007100DF107014FF001030CBF0A46002274
:104FA000043000F0F5F99DF8070003B05DF804FB4C
:104FB0000022FFF7EABF13B590F87530ADF8061080
:104FC000044613B149BAADF80610002A0DF10601E6
:104FD0004FF002030CBF0A460022201D00F0D8F952
:104FE00094F8753023B1BDF806305BBAADF80630E1
:104FF000BDF8060002B010BD0022FFF7DCBF0000C4
:1050000007B5342300930C220D230B210248FFF730
:1050100009FF03B05DF804FBD00400200A4A0346F0
:10502000106883B1094A934201D104F01BBE084ABB
:10503000934201D104F006BE064A9342FAD002F52B
:1050400078429342F1D07047B00000200030014018
:1050500000380040003C00402DE9F04F0E4685B07E
:1050600015461F460446002800F0EC809449006E67
:1050700006F008FD93498146E06D06F003FD924974
:105080008346606E06F0FEFC90498046A06E06F0F6
:10509000F9FC8246B9F1000F00F0D480BBF1000F9B
:1050A00000F0D080B8F1000F00F0CC80594648469F
:1050B00006F00FFD51468146404606F00AFD0146C6
:1050C0008046484606F005FDA065B9F1000F00F0E6
:1050D000B980B8F1000F00F0B580002800F0B28070
:1050E0007749206E06F0B6FC7649E06D06F0B2FC1A
:1050F0007549606E06F0AEFC636E012D8CBF012118
:10510000022113F0800840F0D880C3F30310704AE6
:1051100003F00F0352F820206E48D2F80CC050F86C
:10512000233093FAA3F0B0FA80F04FF0030E400062
:1051300093FAA3F3B3FA83F30EFA00F05B002CEAC0
:10514000000001FA03F30343D360A06E5F4906F049
:1051500081FC614BA06D98424FF0000313D1009386
:105160005E4B5A6C42F480525A645A6C02F480527C
:105170000092009A5A6A42F480525A625A6A22F4A1
:1051800080525A6215E0564A90425ED10193534BC9
:105190001A6C42F480421A641A6C02F48042019242
:1051A000019A1A6A42F480421A621A6A22F4804210
:1051B0001A62A36E20605A1C0CBF4FF400734FF4A8
:1051C0008023A3619DF83830002B14BF00234FF4D7
:1051D00082736360FFF722FFB6EB500F61D2B6EB2C
:1051E000900F60D2B6EBD00F5FD2B6EB101F5ED23D
:1051F000B6EB501F5DD2B6EB901F5CD2B6EBD01F62
:105200002CBF30233823E3613DB1022D05D0013D91
:1052100018BF01256D004FF00108072287F0010734
:1052200000239740C4E90873A360A362E262E360CD
:10523000C4E90458204605F050F9A26D136843F004
:105240004003136005B0BDE8F08F264A904212D1AA
:105250000293224B1A6C42F400421A641A6C02F454
:1052600000420292029A1A6A42F400421A621A6AD0
:1052700022F400429CE71C4A90429AD10393174BB8
:105280005A6C42F400525A645A6C02F4005203926F
:10529000039A5A6A42F400525A625A6A22F400523D
:1052A0006FE70023AFE70823ADE71023ABE7182330
:1052B000A9E72023A7E72823A5E70023DB68FFDE73
:1052C000D00501087C05010810050108B00401089B
:1052D00084000020580401080030014000380240DA
:1052E00000380040003C00400034014010B5044646
:1052F00018B305F04FF9A36D204A93420DD1204B0E
:105300005A6A42F480525A625A6A22F480525A62AD
:105310005A6C22F480525A640FE01A4A93420DD11B
:10532000174B1A6A42F480421A621A6A22F48042C7
:105330001A621A6C22F480421A6410BD124A934217
:105340000CD10F4B1A6A42F400421A621A6A22F414
:1053500000421A621A6C22F40042EDE70B4A9342B3
:10536000EBD1074B5A6A42F400525A625A6A22F44D
:1053700000525A625A6C22F40052CCE700300140CD
:105380000038024000380040003C0040003401403A
:105390002DE9F0410D4616461C4633B3876D02F0E9
:1053A00079FE8046BB689907FCD5D5B115F8013B5D
:1053B0003B73BB68DA07FCD53B7B0EB106F8013BBB
:1053C00002F068FEA0EB0800B0F57A7F04F1FF342C
:1053D00009D2002CE6D12046BB681B06FCD4BDE8F0
:1053E000F081FF23E4E70120F6E70220F7E77047AA
:1053F0002DE9F04F85B01D46BDF93840BDF83C3071
:105400000093A4EB0208A5EB0109B8F1000FB8BFA7
:10541000C8F10008B9F1000FB8BFC9F10009C845CB
:10542000174616468246A4462A460B4605DC224607
:105430003B462C460F4665463146A74208DC1E46D1
:10544000134632462E460D46314626463C463746E2
:105450009B1A3E1B83EAE372A2EBE372C6F3C033EE
:10546000B0B203FA86F68D42B4BF01234FF0FF338A
:105470000190029276100393BC4202DD05B0BDE8B4
:10548000F08FDAF80030C845D3F818B0009BC7BFDA
:10549000224629462A4621465046D847029BF61AFC
:1054A000B3B236B2002E05DA039A1544019A1344BA
:1054B0002DB21EB2013424B2DEE7704710B4046886
:1054C0002469A4465DF8044B604730B40468BDF815
:1054D00008500295A46BA44630BC604730B4046801
:1054E000BDF808500295E46BA44630BC604770B428
:1054F000BDF90C50BDF810600468CDE90356246C6A
:10550000A44670BC60472DE9F3411C460368BDF812
:1055100020805B6905461646013C34440F4624B2A0
:1055200098472B68CDF8048000949C6A28463B4637
:1055300032463946A0472B68DB6A284602B0BDE8F0
:10554000F04118472DE9F3411D460368BDF820805E
:105550005B69044617460E4698472268CDE90078F5
:105560006B1E3344956A20461BB23A463146A84723
:105570002368DB6A204602B0BDE8F04118472DE9F8
:10558000F3471E460368BDF928805B69BDF82C907F
:105590000C460546174698472644B4422B6805DB5F
:1055A000DB6A284602B0BDE8F0471847CDF8009006
:1055B000D3F820A0214643463A4628460134D04736
:1055C00024B2EAE713B502680191B0F90E10009118
:1055D000146CB0F90C3000221146A04702B010BD87
:1055E0002DE9F3471D460368BDF82C805B69BDF9C2
:1055F000289004460F46164698472368CDF8008049
:10560000D3F824A032462B4639462046D04723689B
:10561000CDF8008009F1FF323244D3F824A0394696
:105620002B46204612B2D0472368CDF80080D3F82D
:1056300020A032464B4639462046D047013D2368DC
:10564000CDF80080E91920461D6A32464B4609B262
:10565000A8472368DB6A204602B0BDE8F047184738
:1056600070472DE9F74399421546BDF92860BDF80A
:105670002C90026807460C46984611D1B542D8BF17
:105680003346CDF82890DCBF2E461D466B1C956B2B
:105690009B1B1BB23246AC4603B0BDE8F0436047EB
:1056A000B5420FD19942D8BF1C46CDF82890D66B91
:1056B000D8BF88460134A4EB080423B22A464146E9
:1056C000B446E9E7536998473B68CDE90069384635
:1056D0009E6A2A4643462146B0473B68DB6A384605
:1056E00003B0BDE8F043184701F003038376B0F937
:1056F0000830B0F90A20C9075EBF194613460A46AA
:105700008281C3817047000030B54281C281074A5F
:10571000074D0181002481814FF0FF31C0E905125E
:105720004460056004610477046230BD010100013A
:10573000E8FC00082DE9F04F9FB287B01E46C7F184
:1057400001031BB20193C7EBC7335B001BB2049389
:105750000368BDF840505B69044691468846984707
:105760001FFA89F30293236817FA89F2D3F818A075
:1057700012B22B4641462046D0471FFA89F3DA1B66
:10578000236812B2D3F818A041462B462046D047D2
:105790001FFA88F30093236817FA88F1D3F818A04A
:1057A0004A462B4609B22046D047009BD91B2368A6
:1057B0004A469F6909B22B462046B8470023039307
:1057C000039BB34206DB2368DB6A204607B0BDE8D3
:1057D000F04F1847019B002B0ADB049B02331AB2DF
:1057E0000492019A12FA83F3013E1BB236B201937E
:1057F000039B01331FFA83F81BB20393019B03EB56
:10580000480301331BB20193009B03EB080A029B80
:1058100013FA86F223680FFA8AFA12B29F69059288
:105820002B4651462046B847009B059AA3EB080932
:1058300023680FFA89F99F6949462B462046B847E5
:105840001FFA86FB029B5F46DA1B236812B2D3F86D
:1058500018B005922B4651462046D8472368059A32
:10586000D3F818A049462B462046D047009B03EBAF
:105870000709029B03EB080B23680FFA89F90FFA5B
:105880008BFBD3F818A05A462B4649462046D047F2
:10589000009BDF1B23683FB2D3F818A05A462B4663
:1058A00039462046D047029BA3EB080823680FFA2D
:1058B00088F8D3F818A042462B4649462046D047E0
:1058C00023684246D3F8189039462B462046C847ED
:1058D00076E72DE9F04F8BB01C46BDF858300493A5
:1058E000A3B2C3F10105C3EBC3335B001BB2079343
:1058F000BDF95430039101339BB29DF850100593CC
:1059000093B206939A460023029301F00103089391
:10591000DDF814B001F0020380462DB20993029B1A
:10592000A34202DB0BB0BDE8F08F002D6CDB079BC0
:1059300002331AB2661E15FA83F336B207921DB20D
:10594000029F01371FFA87F93BB205EB4905013584
:105950009E4202932DB22ADB089B93B104980699CC
:105960000090059BD8F80000B2B203EB42038A1AFC
:105970000399006A494407461BB212B209B2404675
:10598000B847099B9BB10699059B04980090B2B259
:1059900003EB42038A1A0399D8F80000A1EB09012E
:1059A0001BB2D0F8209012B209B24046C847A642B6
:1059B00020D0089B73B1039B049A1919D8F80030C2
:1059C0000092D3F820900FFA8AF20FFA8BF309B203
:1059D0004046C847099B6BB1039B049A191BD8F832
:1059E000003000921C6A0FFA8AF20FFA8BF309B2A8
:1059F0004046A0470AF1FF331FFA83FA0BF1020376
:105A00001FFA83FB34468AE7264699E72DE9F043DF
:105A10001F46036885B004465B69BDF830800D46BB
:105A200016469847BAB22168CDF80080530001337A
:105A3000B21AD1F82090204629461BB212B2C847AC
:105A400003230022CDE9003220463B46CDF80880F2
:105A500032462946FFF73DFF2368DB6A204605B042
:105A6000BDE8F04318472DE9F04F89B0CDE90312A6
:105A70000593BDF8503006930368BDF948905B6903
:105A8000BDF94CA00446984719F1070348BF09F136
:105A90000E030026DB100293B0463546049B03EB51
:105AA00008020FFA88F39A4512B226DD002301930B
:105AB000059B03EB060B17E059070BBFDB106D00CE
:105AC0001BF80350EDB22B060BD5039B01990792EF
:105AD000591823689B6909B21F462046069BB847A0
